:020000040800F2
:100000007008002005010008231F0008091D0008D2
:10001000211F0008CB060008BD28000800000000D2
:10002000000000000000000000000000A122000805
:100030000307000800000000251F0008E522000853
:100040001F0100081F0100081F0100081F01000810
:100050001F0100081F0100081F0100081F01000800
:100060001F0100081F0100081F0100081F010008F0
:100070001F0100081F0100081F010008CD0600082D
:100080001F0100081F0100081F0100081F010008D0
:100090001F0100081F0100081F0100081F010008C0
:1000A0001F010008492300081F0100081F01000864
:1000B0001F0100081F0100081F0100081F010008A0
:1000C0001F0100081F0100081F0100081F01000890
:1000D0001F0100081F010008B52600081F010008C5
:1000E0001F0100081F0100081F010008DFF810D0E1
:1000F00000F0B8FA00480047A9320008AFF30080CA
:10010000700800200648804706480047FEE7FEE7E3
:10011000FEE7FEE7FEE7FEE7FEE7FEE7FEE7FEE7B7
:1001200047230008ED000008202A04DB203A21FACA
:1001300002F00021704721FA02F3D040C2F1200200
:10014000914008431946704740EA01039B0703D0DA
:1001500009E008C9121F08C0042AFAD203E011F806
:10016000013B00F8013B521EF9D27047D2B201E0C8
:1001700000F8012B491EFBD270470022F6E710B5AC
:1001800013460A4604461946FFF7F0FF204610BD05
:100190002DE9FE4F81EA030404F0004421F0004100
:1001A00000944FF0000B23F0004350EA01045ED0AE
:1001B00052EA03045BD0C3F30A54C1F30A552C443A
:1001C000A4F2F3340194A0FB0254C1F3130141F4EF
:1001D0008011C3F3130343F4801301FB024400FBBB
:1001E000034E840A970A44EA815447EA8357A4FBE2
:1001F000076802958D0A05FB07854FEA932C04FBDF
:100200000C542705029D4FEA065847EA1637B5EB0E
:1002100008056EEB070C870E920E47EA811742EA3B
:100220008312A7FB0201B6EB0B0164EB00042B0D5C
:1002300043EA0C335E1844EB1C50DA465146E7FBA8
:100240000201C5F313044FEA0B3343EA14534FEA98
:100250000432019C43EA0603A4F10C040294009CBE
:10026000CDE900B400F069F803B0BDE8F08F0020DC
:100270000146F9E70EB540F2334102910021CDE984
:1002800000110A460B4600F058F803B000BD30B527
:100290000B46014600202022012409E021FA02F544
:1002A0009D4205D303FA02F5491B04FA02F52844DE
:1002B000151EA2F10102F1DC30BD2DE9F05F05460B
:1002C000002092469B4688460646814640241BE015
:1002D0002846414647462246FFF726FF53465A46E0
:1002E000C01A914110D311461846224600F0CCF9AD
:1002F0002D1A67EB01084F4622460120002100F02D
:10030000C3F917EB00094E41201EA4F10104DFDC04
:10031000484631462A464346BDE8F09F10B5141EB4
:1003200073F1000408DA401C41F1000192185B41AE
:100330001A4301D120F0010010BD2DE9F04D924685
:100340009B4611B1B1FA81F202E0B0FA80F220329C
:10035000904600F099F904460F4640EA0A0041EA47
:100360000B0153465A46084313D0114653EA010085
:1003700019D0C8F140025046FFF7D6FE05460E469A
:1003800050465946424600F07FF9084305D0012007
:1003900004E020463946BDE8F08D0020054346EADA
:1003A000E0762C4337430A986305E40AA0EB080083
:1003B0000022FD0A44EA47540A3002D500200146D3
:1003C000E9E7010510196941DDE9084500196941AE
:1003D000BDE8F04DA2E72DE9FE4F804681EA03001B
:1003E000C00F0C46009021F0004123F00045B8EB0F
:1003F0000200A94105D24046214690461C460B46C4
:10040000024623F00040104347D0270DC7F30A00EF
:10041000C3F30A510290401A019040286BDAC3F3EB
:10042000130040F4801B0098924620B10023D2EBC9
:10043000030A63EB0B0B01985946C0F1400250468A
:1004400000F022F906460D4650465946019A00F042
:100450002AF910EB08006141002487EA115284EA6E
:10046000E7731A4340D0009A62B3019A012A4FEA17
:10047000075215DC001B61EB02014FF0004202EA5B
:100480000752CDE90042001C41F5801132462B464F
:10049000FFF753FF03B0BDE8F08F40462146F9E770
:1004A000001B61EB0201001C41F5801300185B4149
:1004B0002018A2F5001747EB030140EAD570B619E2
:1004C0006D4111E06D084FEA360645EAC0754FEA06
:1004D0000752001B61EB0201001C41F58011490825
:1004E0004FEA30000019514132462B4603B0BDE8B7
:1004F000F04FFFF713BF0098012240000023D0EB1C
:10050000020263EBE073009821464FEAE074B8EB17
:10051000000061EB0401E9E783F000435BE781F051
:10052000004158E72DE9F04D81EA030404F0004B47
:1005300021F0004514464FF0000A23F0004150EA34
:10054000050220D054EA01021DD0C5F30A57024625
:10055000C5F31303C1F31300C1F30A5640F4801529
:1005600043F48013A7EB0608101BD64608F2FD38AB
:1005700073EB050002D308F1010801E092185B411A
:10058000B8F1000F03DA00200146BDE8F08D00202D
:100590004FF48011064684460EE0171B73EB0507E7
:1005A00005D3121B63EB050306434CEA010C490813
:1005B0004FEA300092185B4150EA0107EDD152EA50
:1005C000030012D082EA040083EA0501084305D043
:1005D000101BAB4106D20122002306E000224FF09F
:1005E000004302E06FF0010253101AEB06004CEBDF
:1005F000085110EB0A0041EB0B01BDE8F04DFFF78D
:100600008DBEC1F30A52C1F3130140F2FF3341F42E
:1006100080119A4202DA00200146704740F23343CB
:100620009A42A2F2334202DC5242FFF77DBD00F053
:100630002BB8000030B5041E71F1000404DB4FF04C
:100640000044404264EB0101141E73F1000405DB19
:100650001C464FF00043524263EB0403994208BF2B
:10066000904230BD064C074D06E0E06840F00103C3
:1006700094E8070098471034AC42F6D3FFF73AFDF0
:100680001835000838350008202A04DB203A00FA23
:1006900002F1002070479140C2F1200320FA03F3D9
:1006A000194390407047202A06DBCB17203A41FAC5
:1006B00002F043EAE07306E041FA02F3D040C2F1EF
:1006C00020029140084319467047FEE7014800F0B8
:1006D000A1B800009402002030B590F840500124E9
:1006E000AC40C56B6C60046863604368102B0368A2
:1006F00003D099600068C26030BD9A600068C16034
:1007000030BD704772B6FEE770B5094DFF22134643
:1007100005F5807606E000BF10F8014B54402A5DD5
:100720005A40335D491EC9B2F6D243EA022070BD79
:10073000EC32000810B590F821100022022905D0F3
:100740000421816380F82020012010BD01680B681E
:1007500023F00E030B6001680B6823F001030B60AC
:1007600090F84030C46B012101FA03F3636080F814
:10077000211080F82020104610BD000010B590F820
:1007800021100024022903D00421816301243DE0CB
:1007900001680A6822F00E020A6001680A6822F005
:1007A00001020A601A4A0168914201D1012121E047
:1007B000174A1432914201D110211BE0144A283209
:1007C000914201D1891515E0114A3C32914201D183
:1007D00089140FE00E4A5032914202D14FF4803119
:1007E00008E00B4A6432914202D14FF4801101E0DB
:1007F0004FF08071064A083A5160012180F82110BB
:10080000002180F82010416B01B18847204610BDBF
:10081000080002402DE9F05FC16B0C6801680B68AD
:10082000D0F840C0042202FA0CF2494DDFF824A1AE
:10083000494E4A4FDFF828B1DFF828E122422CD098
:100840005A072AD50A68920603D40A6822F00402DD
:100850000A600168A94201D1042219E0514501D181
:10086000402215E0B14202D14FF4806210E0B9425B
:1008700002D14FF480420BE0594502D14FF480225F
:1008800006E0714502D14FF4800201E04FF0806232
:100890002F4908394A60C16A3BE04FF0020808FA64
:1008A0000CF818EA040F4FF000094FF0010235D0A0
:1008B0005FEA837832D50B689B0605D40B6823F07A
:1008C0000A030B6080F821200168A94201D10222AD
:1008D00019E0514501D1202215E0B14202D14FF477
:1008E000007210E0B94202D14FF400520BE05945BA
:1008F00002D14FF4003206E0714502D14FF40012EC
:1009000001E04FF00072124908394A6080F82090E7
:10091000816A00291AD0BDE8F05F0847082505FA6A
:100920000CF5254212D01B0710D50B6823F00E03DF
:100930000B6090F84010C36B02FA01F159608263BA
:1009400080F8212080F82090016BE2E7BDE8F09F5D
:10095000080002401C0002403000024044000240F7
:10096000580002406C00024030B528B308C8134953
:1009700014221944B1FBF2F18900C163104981636B
:10098000022141771A6843F6F0718A43D0E90014D6
:100990002143D0E902452C432143046921434469A2
:1009A00021438469214311431960002141630122DD
:1009B00042770177084630BD012030BDF8FFFDBF0A
:1009C0000000024070B5044690F820000025012880
:1009D0000CD0012084F8200094F821600020012E22
:1009E00006D084F820000225284670BD022070BD84
:1009F000022684F82160A0632068066826F00106BC
:100A000006602046FFF768FEE06A0028206801685B
:100A100002D041F00E0106E021F0040101602068DF
:100A2000016841F00A0101602068016841F001019C
:100A30000160D9E72DE9F84FDFF8B8910024A9F15A
:100A4000040B23460F2709F1040AABF1040EC9E099
:100A50000125A5402A40AA427DD1674ED1F804C0A5
:100A6000ACEB0608B44532D014DCBCF1030F3AD02D
:100A700009DCBCF1000F2AD0BCF1010F1CD0BCF185
:100A8000020F31D11DE0BCF1110F17D0BCF1120FD4
:100A90002AD119E0B8F5881F19D006DCB8F5803FD7
:100AA00015D0B8F5801F1FD111E0B8F5001F0ED08A
:100AB000B8F5041F18D10AE0CB6815E0CB681B1D00
:100AC00012E0CB6808330FE0CB680C330CE08B6886
:100AD0002BB1012B4FF0080303D0456104E0042340
:100AE00002E0056100E00023FF2A01D8064601E08C
:100AF00000F104064FEA840501D9A5F12005D6F8D6
:100B0000008007FA05FC28EA0C0803FA05F548EA14
:100B10000508C6F800804D68ED0062D5374DAE6916
:100B200046F00106AE61AD6924F0030605F001054B
:100B30000095334D06EB050CDCF80850A607360F80
:100B400007FA06F825EA0805DFF8B880404503D122
:100B50004FF0000817E044E0DFF8AC80404502D1D8
:100B60004FF001080FE0DFF8A480404502D14FF0BC
:100B7000020808E0DFF89880404502D14FF00308F2
:100B800001E04FF0040808FA06F848EA0508CCF836
:100B900008804D68D9F80060ED024D4601D5164336
:100BA00000E096432E604D68DAF80060AD025546CD
:100BB00001D5164300E096432E604D68DBF80060D7
:100BC000AD035D4601D5164300E096432E604D68A7
:100BD000DEF80060ED03754601D5164300E096434C
:100BE0002E60641C0D682A46E5407FF431AFBDE8F5
:100BF000F88F0000080401400000111000100240AE
:100C00000000014000080140000C014000100140BC
:100C100000140140C26821EA02030A4043EA02418B
:100C2000016170470AB1016170470904FBE70000E8
:100C30000148806870470000280000200248816851
:100C4000027811448160704728000020074810B5E1
:100C5000016841F010010160032000F075F80020E8
:100C600000F006F800F024F8002010BD002002403B
:100C700070B50D4D04464FF47A712878B1FBF0F051
:100C80000A490968B1FBF0F000F0E8FB48B9102C04
:100C900007D200222146501E00F036F800206C607A
:100CA00070BD012070BD000028000020340000202D
:100CB0000C4808B5816941F001018161816901F049
:100CC00001010091C16941F08051C161C06900F02A
:100CD000805000900448416821F0E06141F00071CB
:100CE000416008BD0010024000000140002809DBFF
:100CF00000F01F02012191404009800000F1E02036
:100D0000C0F8001170470000F0B40E4B1B680C4691
:100D1000C3F30223C3F10705042D00D90425191DCF
:100D2000072901D2002300E0DB1E012606FA05F1A7
:100D3000491E214099409E40761E16403143F0BC2A
:100D400001F040BE0CED00E0064900F00702086823
:100D50004FF6FF03184040EA0220034A10430860A0
:100D6000704700000CED00E00000FA052DE9F047A7
:100D70000F46050061D0434E306800F00700B842CE
:100D800009D2306820F0070038433060306800F046
:100D90000700B84251D128683B4C810712D5400763
:100DA00003D5606840F4E06060602878000703D5F0
:100DB000606840F4605060606068A96820F0F000EE
:100DC000084360602878C00728D06868012810D0E0
:100DD0002168022810D0890700292EDA616821F0E5
:100DE000030101436160FFF723FF804641F2883928
:100DF0000DE021688903EFE78901EDE7FFF718FFB0
:100E0000A0EB0801494502D90320BDE8F0876068DE
:100E1000696800F00C00B0EB810FEFD1306800F092
:100E20000700B8420BD9306820F007003843306023
:100E3000306800F00700B84201D00120E5E72878CB
:100E4000400705D56068E96820F4E0600843606009
:100E50002878000706D56068296920F4605040EAC8
:100E6000C100606000F038F86168084AC1F30311FE
:100E7000515CC8400649086006480068FFF7F8FE64
:100E80000020C2E70020024000100240FE340008AB
:100E9000340000202C0000200448054900684968FF
:100EA000044AC1F30221515CC8407047340000205D
:100EB000001002400E3500080448054900684968E2
:100EC000044AC1F3C221515CC8407047340000207D
:100ED000001002400E3500080E4A51680E4801F01D
:100EE0000C03042B11D0082B0FD10C48C1F3834302
:100EF000C903C05C0AD55168084AC1F34041921E3B
:100F0000515C054A5043B0FBF1F070470449484337
:100F1000704700000010024000127A00EE34000812
:100F200000093D002DE9F84F040070D02078C04D35
:100F3000C00749D06868C0F38100012807D06868FD
:100F4000C0F38100022809D16868C00306D528686B
:100F5000800339D560680028E7D035E06068B0F5D7
:100F6000803F0BD010B1B0F5A02F11D0286820F42D
:100F700080302860286820F4802002E0286840F44F
:100F800080302860606890B1FFF752FE06460AE0A4
:100F9000286840F480202860F0E700BFFFF748FE93
:100FA000801B642873D828688003F7D50CE0FFF70E
:100FB0003FFE064605E000BFFFF73AFE801B6428AF
:100FC000F0D828688003F7D420789A4E80074FF035
:100FD00001094FF0000839D5686810F00C0F07D0F0
:100FE0006868C0F38100022809D16868C00306D48C
:100FF0002868800714D52069012808D110E02069ED
:10100000B0B1C6F80090FFF713FE074605E00AE10D
:10101000FFF70EFEC01B0228C4D828688007F7D54A
:101020002868616920F0F80040EAC10028600DE0FE
:10103000C6F80080FFF7FCFD074604E0FFF7F8FD67
:10104000C01B022823D828688007F7D4207800071F
:101050002CD57948A169D9B1C0F80090FFF7E8FD17
:10106000074604E0FFF7E4FDC01B02280FD8686ABA
:101070008007F7D571484FF4FA510068B0FBF1F0E2
:10108000009000BF0098411E0091FAD20EE080E06F
:10109000C0F80080FFF7CCFD074604E0FFF7C8FD6D
:1010A000C01B022875D8686A8007F7D420784007EB
:1010B00060D5E8690027C00008D4E86940F0805096
:1010C000E861E869012700F0805000905C48016801
:1010D000C90513D40168834641F480710160FFF7AC
:1010E000A7FD824606E000BFFFF7A2FDA0EB0A00C5
:1010F00064284ED8DBF80000C005F5D5E06801286B
:101100000AD008B1052813D0286A20F0010028620F
:10111000286A20F0040002E0286A40F001002862FA
:10112000E06841F2883B98B1FFF782FD82460BE010
:10113000286A40F004002862EEE700BFFFF778FD60
:10114000A0EB0A0159455AD8286A8007F6D50CE069
:10115000FFF76EFD824605E0FFF76AFDA0EB0A018E
:1011600059454CD8286A8007F6D41FB1E86920F0A9
:101170008050E861E06988B36968C1F381010229A0
:1011800044D00228C6F8608004D0FFF751FD044621
:1011900038E034E0FFF74CFD074604E0FFF748FD78
:1011A000C01B02282BD828688001F7D4206AB0F52C
:1011B000803F05D16868A16820F40030084368606A
:1011C000D4E908010843696821F474110843686090
:1011D000C6F86090FFF72CFD044606E025E000BF4E
:1011E000FFF726FD001B022809D828688001F7D5E3
:1011F0001BE000BFFFF71CFD001B022802D90320E3
:10120000BDE8F88F28688001F4D40EE00128F7D0FB
:101210006868226A00F48031914204D1616A00F466
:101220007010884201D00120EAE70020E8E70000C2
:10123000001002400000424280044242340000207C
:1012400000700040704770B5040009D0606A002546
:1012500040B125616561A56294F8510040B10CE090
:10126000012070BD6068B0F5827FF4D0E561F2E7DF
:1012700084F85050204600F03FF8022084F85100D6
:101280002068016821F040010160A088218900F4F4
:10129000827001F404410843A18901F4006108430C
:1012A000217C01F002010843217D01F00101084386
:1012B000218B01F400710843217F01F038010843BC
:1012C00094F8201001F080010843218D01F40051B1
:1012D000084321680860A069042101EA10402168E0
:1012E00048602068C16921F40061C1616565012021
:1012F00084F85100002070BD70B586B00025064608
:10130000009501950295039500681B49884230D1EC
:101310001A49C86940F48040C861C86900F4804037
:101320000490886940F0080088618869694600F087
:10133000080004904FF42040009002200190032008
:1013400003900F48FFF776FB0F4C0E4820601020EB
:10135000C4E901058020C4E9030580016561C4E991
:1013600006502046FFF700FB08B1FFF7CBF9B46445
:10137000666206B070BD00000038004000100240F8
:10138000000C0140580002409402002070B5044651
:1013900090F850000026012809D0012084F8500060
:1013A00094F851000025012803D002264AE00220CB
:1013B00070BD89B182B1032084F851006565216355
:1013C000A286E286A56365642564A587E587A06893
:1013D000B0F5004F02D00BE0012633E02068016831
:1013E00021F0400101602068016841F48041016002
:1013F000A16C1648C862A16C15488862A16C15489A
:101400000863A06C4563E38E2268216B0C32A06CEC
:10141000FFF7D8FA20B1606D40F010006065DBE79F
:1014200020680168490603D4016841F04001016069
:101430002068416841F0200141602068416841F026
:101440000201416084F85050304670BD5B210008B5
:1014500065210008392100087047704710B5401E0B
:10146000B0F1807F01D3012010BD4FF0E024606116
:101470000F21601701F0A6FA0020A061072020616B
:10148000002010BD7047704770B590F83C20012ACD
:1014900026D0012480F83C40022280F83D200368D9
:1014A0005A689D6822F070060A6832435A600D4BF4
:1014B00002689A4208D0B2F1804F05D00A4B9A4296
:1014C00002D00A4B9A4204D1496825F0800319439F
:1014D000916080F83D40002180F83C10084670BDC6
:1014E000022070BD002C01400004004000080040B4
:1014F00010B5040003D094F83D0010B107E00120BE
:1015000010BD002084F83C00204600F01FF80220A7
:1015100084F83D00211D206800F01CFF012084F8A4
:10152000460084F83E0084F83F0084F8400084F8C8
:10153000410084F8420084F8430084F8440084F8B1
:10154000450084F83D00002010BD000008B500688B
:101550000B49884212D10B48816941F400618161D5
:101560008069002200F40060009001211920FFF73B
:10157000CBFBBDE808401920FFF7B8BB08BD000051
:10158000002C01400010024090F83D10012901D0CC
:1015900001207047022180F83D100168CA6842F0BE
:1015A0000102CA6000680B49884208D0B0F1804F40
:1015B00005D00949884202D00849884204D181688F
:1015C00001F00701062903D0016841F00101016023
:1015D00000207047002C014000040040000800403B
:1015E00070B5044690F83C000025012817D001266C
:1015F00084F83C60022084F83D002068826822F074
:10160000770222F47F4282600868502838D00DDCCF
:1016100020284FD005DC90B3102811D14AE00220D9
:1016200070BD302846D040280AD13BE060282FD03A
:1016300070280DD0B0F5805F03D0B0F5005F12D0F8
:10164000012584F83D60002084F83C00284670BDE8
:10165000CB68D1E90121206800F0B2FE20688168E2
:1016600041F0770109E0CB68D1E90121206800F061
:10167000A7FE2068816841F480418160E1E719E0BC
:10168000CA684968206800F0ADFE5021206806E075
:10169000CA684968206800F0B6FE6021206800F042
:1016A00099FECEE7CA684968206800F09BFE402199
:1016B0002068F4E7226801461046F0E7704770B5ED
:1016C0000446006801694FF00005C943890715D435
:1016D000C168C943890711D4E91E0161012020773F
:1016E000206880698007204602D0FFF7E7FF04E00A
:1016F00000F098F8204600F096F8257720680169F8
:10170000C943490717D4C168C943490713D46FF0C7
:1017100004010161022020772068806910F4407F75
:10172000204602D0FFF7CAFF04E000F07BF8204615
:1017300000F079F8257720680169C943090716D4B4
:10174000C168C943090712D46FF008010161042080
:1017500020772068C0698007204602D0FFF7AEFFDF
:1017600004E000F05FF8204600F05DF8257720687F
:101770000169C943C90617D4C168C943C90613D44E
:101780006FF010010161082020772068C06910F413
:10179000407F204602D0FFF791FF04E000F042F8BE
:1017A000204600F040F8257720680169C943C90741
:1017B00008D1C168C943C90704D1891E0161204607
:1017C00000F032F820680169C943090609D4C168EC
:1017D000C943090605D46FF0800101612046FFF777
:1017E00051FE20680169C943490609D4C168C9434B
:1017F000490605D46FF040010161204600F038F839
:1018000020680169C94389060BD4C168C9438906A8
:1018100007D46FF0200101612046BDE87040FFF75A
:1018200032BE70BD7047704710B500680E498842DF
:1018300018D10E4C2088401C80B22080B0F5FA6F81
:1018400007D1152312220321012000F053FC0020B0
:101850002080012001F018F8BDE810404FF4FA7024
:1018600000F054BA10BD0000002C01401000002010
:101870007047704770470000F8B501680446086873
:10188000CA684B6910F00F0F4FF0000559D003F0F4
:10189000010602F49077374365D0C10705D0D10522
:1018A00003D5616C41F001016164410705D5D90799
:1018B00003D0616C41F002016164810705D5D9074D
:1018C00003D0616C41F004016164010707D502F0A7
:1018D0002001314303D0616C41F008016164616C07
:1018E00000293AD0800604D5900602D5204600F0A3
:1018F000CBFD20684069616CC0F38010090700D4FB
:1019000060B3204600F099FD20684069400621D56B
:101910002068143050E8001F21F0400140E8001218
:10192000002AF5D1E06BA8B16D494163E06BFEF789
:1019300025FF002811D0E06B416B01B0BDE8F040FD
:10194000084783060FD593060DD52046BDE8F8401D
:1019500000F09ABD2046FFF78DFFF8BD2046FFF747
:1019600089FF6564F8BD266B2023012E7CD1C60655
:101970007AD5D60678D508684868009048694FF04F
:101980000206400640D5E16B086840680004000C80
:10199000E8D0A28D8242E5D9E085886920282DD043
:1019A00020680C3050E8001F21F4807140E80012DC
:1019B000002AF5D12068143050E8001F21F0010101
:1019C00040E80012002AF5D12068143050E8001FCA
:1019D00021F0400140E80012002AF5D184F842309D
:1019E000256320680C3050E8001F21F0100140E80A
:1019F0000012002AF5D1E06BFEF79CFE6663A08D15
:101A0000E18D401A81B22AE0A08DE18D401A81B2A9
:101A1000E08D0028A6D00029A4D022680C3252E81C
:101A2000000F20F4907042E80007002FF5D12068E5
:101A3000143050E8002F22F0010240E80027002F68
:101A4000F5D184F84230256320680C3050E8002F2F
:101A500022F0100240E80023002BF5D166632046F7
:101A6000FFF707FFF8BDFFE705062BD5150629D5BB
:101A700094F841002128F5D1A068B0F5805F01D12C
:101A80002069B0B1206A411C216221680078486059
:101A9000E08C401E0004000CE084E3D12068C168A3
:101AA00021F08001C1602068C16841F04001C1603F
:101AB000D8E7206A0088C0F308004860206A801CCC
:101AC0002062E5E74006CDD55006CBD5CA68204652
:101AD00022F04002CA6084F8413000F014F9C1E7F6
:101AE0002B24000870B5040004D094F841000025B0
:101AF00010B106E0012070BD84F84050204600F08F
:101B000023F8242084F841002068C16821F40051A2
:101B1000C160204600F01AFD2068016921F490415F
:101B200001612068416921F02A0141612068C16892
:101B300041F40051C1606564202084F8410084F8BC
:101B400042006563002070BD70B586B0002400942B
:101B50000194029403942B4E03682B490220032224
:101B60002A4DB34221D18B6943F480438B618B6949
:101B700003F4804304938B6943F004038B61896908
:101B8000039201F0040104910102CDE900106946BD
:101B90002846FEF74FFF2815CDE900046946284680
:101BA0000294FEF747FF06B070BD194EB342FAD15A
:101BB000CB6943F40033CB61CB6903F40033049366
:101BC0008B6943F004038B618969039201F004017E
:101BD00004910421CDE9001069462846FEF72AFF4A
:101BE0000820CDE90004694628460294FEF722FF4A
:101BF000002202212620FFF787F82620FFF776F83B
:101C0000D1E7000000380140001002400008014008
:101C10000044004090F84230202B01D00220704751
:101C200021B11AB10023036300F0ECBC012070471E
:101C300010B50A490068096888420ED108480A4967
:101C4000084B027808781A54401C08700122044995
:101C50000248FFF7DFFF0028F8D110BD680300201D
:101C60000C0000203B010020000000202DE9F8437B
:101C7000044690F841001F4616460D46202802D023
:101C80000220BDE8F8837DB176B100206064212098
:101C900084F84100FEF7CCFFA6848046E684A06865
:101CA000B0F5805F02D003E00120EAE7206910B1BF
:101CB0002E4600250EE000260CE08021204600F094
:101CC000BCFCA0B9AEB116F8010B21684860E08CED
:101CD000401EE084E08C43464FF00002009700284D
:101CE000EBD14FF04001204600F0A7FC30B10320BB
:101CF000C7E735F8020BC0F30800E6E7202084F8B8
:101D000041000020BDE77047FEE7000007490A8850
:101D1000521C92B20A80824206D1002008804FF401
:101D200000510348FEF776BF704700000E00002008
:101D300000100140094808B5416941F001014161C5
:101D40004069002200F00100009011460F20FEF7CC
:101D5000DBFFBDE808400F20FEF7C8BF00100240BF
:101D6000F0B585B0002000900190029003902148CA
:101D7000816941F010018161816901F010010491D4
:101D8000816941F020018161816901F020010491A4
:101D9000816941F004018161816901F004010491CC
:101DA000816941F0080181618069012200F0080029
:101DB000114E5403049021463046FEF733FF0F4F77
:101DC000002202213846FEF72DFF0125CDE900450E
:101DD00002240294694630460394FEF72BFECDE9B7
:101DE00000450294694638460394FEF723FE05B089
:101DF000F0BD00000010024000100140000801404A
:101E0000104810B50E4901604FF482714160002105
:101E100002228160C0E90312012242615202826102
:101E20001022C0E90721416281620A21C162FFF7E5
:101E30000AFA002803D0BDE81040FEF763BC10BDCD
:101E4000003800403C02002010B586B0002417483E
:101E5000009401940294039404941349059401603E
:101E60004721C0E9011440F2E731C0E9031444619D
:101E70008461FFF73DFB08B1FEF744FC4FF480504E
:101E8000009069460948FFF7ABFB08B1FEF73AFC42
:101E9000049404A905480594FFF7F6FA002801D038
:101EA000FEF730FC06B010BD002C0140D802002027
:101EB0000C4810B50A4901604FF4E131416000213E
:101EC00081600C22C160C0E904128161C161FFF729
:101ED00009FE002803D0BDE81040FEF713BC10BD7A
:101EE00000380140200300200C4810B50A49016069
:101EF0004FF416514160002181600C22C160C0E99D
:101F000004128161C161FFF7EDFD002803D0BDE837
:101F10001040FEF7F7BB10BD0044004068030020EE
:101F2000FEE7FEE77047000070B5244C07254FF42C
:101F30007F46E088401C80B2B0FBF5F105FB110143
:101F4000E080304600F0BCFCE088401CB0FBF5F1BE
:101F500005FB1101304600F0B3FCE088801CB0FBAB
:101F6000F5F105FB1101304600F0AAFCE088C01C29
:101F7000B0FBF5F105FB1101304600F0A1FCE08853
:101F8000001DB0FBF5F105FB1101304600F098FC97
:101F9000E088401DB0FBF5F105FB1101304600F073
:101FA0008FFCE088801DB0FBF5F105FB1101304688
:101FB00000F086FCBDE8704000F0EABC1200002092
:101FC00070B5244C07254FF47F062088401C80B252
:101FD000B0FBF5F105FB11012080304600F070FCEC
:101FE0002088401CB0FBF5F105FB1101304600F0E4
:101FF00067FC2088801CB0FBF5F105FB1101304621
:1020000000F05EFC2088C01CB0FBF5F105FB11015F
:10201000304600F055FC2088001DB0FBF5F105FBB3
:102020001101304600F04CFC2088401DB0FBF5F15A
:1020300005FB1101304600F043FC2088801DB0FBF9
:10204000F5F105FB1101304600F03AFCBDE87040A7
:1020500000F09EBC1200002070B5244C0725244ED1
:10206000A088401C80B2B0FBF5F105FB1101A080F7
:10207000304600F025FCA088401CB0FBF5F105FBC4
:102080001101304600F01CFCA088801CB0FBF5F16B
:1020900005FB1101304600F013FCA088C01CB0FB0A
:1020A000F5F105FB1101304600F00AFCA088001D87
:1020B000B0FBF5F105FB1101304600F001FCA088F2
:1020C000401DB0FBF5F105FB1101304600F0F8FBB7
:1020D000A088801DB0FBF5F105FB1101304600F032
:1020E000EFFBBDE8704000F053BC00001200002080
:1020F00000FFFF001CB58DF800008DF80110100ADC
:102100008DF80200180A8DF804008DF803208DF870
:10211000053006216846FEF7F7FA010A8DF8061029
:102120008DF807000821684600F0BCF8014901203D
:1021300088701CBD0000002010B5406A01684A6824
:1021400022F003024A60416D41F010014165012116
:1021500080F85110FFF776F810BD10B5406AFFF710
:102160007CF910BD38B50546446AFEF761FD0246AC
:1021700028680068800623D42068416821F0200187
:1021800041602068416821F00201416064212046DD
:1021900000F01AF818B1606D40F020006065A0688A
:1021A000002118B92068C26880680090E18601208B
:1021B00084F85100606D18B12046FFF743F838BD30
:1021C0002046FFF749F938BD38B50B460092044662
:1021D0000022802100F008F8002804D0606D40F053
:1021E00020006065032038BD2DE9F8431E46914666
:1021F00088460446089DFEF71BFD401B351AFEF776
:1022000017FD074625480068C0F3CB30684338E027
:10221000701C37D0FEF70CFDC01BA84203D215B1CD
:10222000009860B32CE02068416821F0E001416033
:102230006068B0F5827F0BD1A068B0F5004F02D086
:10224000B0F5806F04D12068016821F04001016081
:10225000A06AB0F5005F09D12068016821F400513F
:1022600001602068016841F400510160012084F898
:102270005100002084F850000320BDE8F8830025B9
:10228000401E00902068816838EA010004D00021D7
:102290004945BDD10020F0E70121F9E734000020D5
:1022A0007047000070B50C4E0C4605460122022115
:1022B0003046FEF7B7FC1423224629460748FFF7AD
:1022C000D5FC07490020024608703046BDE8704042
:1022D0000221FEF7A7BC00000008014068030020AF
:1022E00000000020FEF7AABC30B58FB02821684658
:1022F000FDF743FF14210AA8FDF73FFF0121080461
:10230000CDE900100024029402250491CDE9075084
:102310004FF4E01009906846FEF704FE08B172B66B
:10232000FEE70F20CDE90A054FF48060CDE90C40AF
:1023300002210AA80E94FEF719FD002801D072B6FA
:10234000FEE70FB030BD70470148FFF7B8B9000095
:10235000D8020020F0B50268164B174C174D4FF00D
:102360008047984205D0B84203D0A04201D0A8428D
:1023700003D122F070064A683243984205D0B84231
:1023800003D0A04201D0A84203D122F44074CA680D
:1023900022434C6922F08002224302608A68C262B2
:1023A0000A688262984201D1096901630121416191
:1023B000F0BD0000002C0140000400400008004077
:1023C00010B5846842EA032224F47F440A4322437E
:1023D000826010BD826822F070020A4342F0070159
:1023E0008160704710B5036A046A24F00104046236
:1023F000846924F0F00444EA021423F00A020A4338
:102400008461026210BD10B5036A046A24F01004EE
:102410000462846923F0A00324F4704444EA023285
:1024200043EA01118261016210BD10B5406A0021CA
:10243000C185C184FFF71EFA10BD01680C3151E857
:10244000002F22F4907241E80023002BF5D101689F
:10245000143151E8002F22F0010241E80023002B43
:10246000F5D1016B012909D101680C3151E8002F28
:1024700022F0100241E80023002BF5D1202180F842
:10248000421000210163704708B590F842102229DC
:1024900001D0022008BD82684FF480539A4201D1D6
:1024A000016921B1816A9A421BD04AB10AE00268EF
:1024B000816A5268C2F308020A80816A891C08E0B6
:1024C000026972B10268526802F07F020A70816A82
:1024D000491C8162C18D491E0904090CC18503D0C4
:1024E0001BE002685268F1E70168CA6822F0200226
:1024F000CA600168CA6822F48072CA6001684A69C9
:1025000022F001024A61202180F84210002141633B
:10251000026B012A03D0FFF78BFB002008BD01638B
:1025200001680C3151E8002F22F0100241E800232D
:10253000002BF5D101680A68D20602D50A684968FD
:102540000091818DFFF795F9E7E7000070B504462B
:1025500000680169E26821F4405111430161216979
:10256000A0680843616908432168CA6841F20C63A6
:102570009A430243CA6020684169A26921F440710C
:10258000114341611E492068884202D1FEF794FC44
:1025900001E0FEF781FC00EBC00101EB0012606876
:1025A00064218000B2FBF0F3B3FBF1F36FF0180687
:1025B0007343B2FBF0F5B2FBF0F605EB8305322373
:1025C00003EB0515B5FBF1F5B6FBF1F605F0F005EB
:1025D00005EB0615B2FBF0F6B2FBF0F0B0FBF1F044
:1025E0006FF01802504306EB800003EB0010B0FBC5
:1025F000F1F0216800F00F002844886070BD0000F1
:102600000038014081628285C28500214164222117
:1026100080F84210016921B10168CA6842F48072F1
:10262000CA6001684A6942F001024A610068C168F3
:1026300041F02001C160002070472DE9F04198462B
:1026400017460E460446069D27E0681C25D02DB18E
:10265000FEF7EEFAA0EB0800A8421ED920680C3065
:1026600050E8001F21F4D07140E80012002AF5D193
:102670002068143050E8001F21F0010140E80012EA
:10268000002AF5D1202084F8410084F8420000207F
:1026900084F840000320BDE8F0812068006836EA35
:1026A000000004D00020B842CFD00020F3E7012082
:1026B000F9E700000148FFF7DFB8000068030020D9
:1026C0002DE9F047454C607800287FD04FF0000995
:1026D00084F80190FF21424800F0BCF86071801E30
:1026E000C1B23F48FEF710F8C0F30727C6B23DA0BD
:1026F00000F058F90025DFF8E88007E018F8052019
:1027000029463CA000F04EF96D1CEDB2607985427F
:10271000F4D337A000F046F960794546404410F8FC
:10272000021CB94254D110F8010CB04250D1687863
:10273000032849D195F8240015F8231F00EB012048
:1027400080B2E080FDF796FD324E334F32463B4675
:10275000FDF71EFD02460B4630A000F023F9E87895
:10276000A97800EB012080B26081FDF783FD32463D
:102770003B46FDF70DFD02460B4629A000F012F97D
:102780006879297900EB012080B2208100EB80007C
:102790004500294626A000F005F943F6F54085429C
:1027A00002DDFFF7C1FB0FE0A5F5C05542F29240F4
:1027B000633D854203D8FFF74FFC05E006E01EA00D
:1027C00000F0F0F8FFF7FCFB84F80290BDE8F0871A
:1027D000BDE8F0471CA000F0E5B8000000000020B4
:1027E0003C000020343835BDD3CAD5CAFDBEDD0D4E
:1027F0000A000000343835BDD3CAD5B5C4D6B520DB
:102800003D206275665B25645D203D202578200DA6
:102810000A0000007B14AE47E17A843F25660A0077
:1028200043445F63757272656E743D2025660A00CD
:102830002564200A00000000CCE1D0D1D3C3BBA79F
:10284000B3E4B5E700000000BDD3CAD5B4EDCEF3C4
:102850000D0A000030B50A4B02461878814200D9B3
:1028600001460020074C04E0255C401C02F8015B97
:10287000C0B28842F8D300201870084630BD00006E
:10288000000000203B0100200B4910B50A7800230E
:1028900082B1CC78944202D0CA700B7110BD0A7913
:1028A000032AFBD21044C0B208710328F6D30120DA
:1028B000487010BDCB7010BD00000020FEE7000086
:1028C00010B50C46C0F30743C0F30721C2B2184647
:1028D00000F014F8072C0AD204EB44000649182231
:1028E00001EBC000BDE810401839FDF72DBCBDE874
:1028F000104000F041B80000C803002070B586B059
:102900000E460546144618216846FDF736FC0020A1
:102910006B46F10701D0F02100E0C021C0F10702B1
:10292000401C7608C0B299540828F2D30020E90769
:1029300001D0F02100E0C021C0F10F02401C6D0861
:10294000C0B299540828F2D30020E10701D0F02149
:1029500000E0C021C0F11702401C6408C0B29954C5
:102960000828F2D3182219460248FDF7EDFB06B0FD
:1029700070BD0000B003002000200449C0220A54AA
:10298000401C80B2A828FAD370470000C80300207A
:10299000A82202490248FEF7F9BC0000C803002043
:1029A0003C0200200FB4054B10B503A9044A02985D
:1029B00000F0EAF810BC5DF814FB0000913200084A
:1029C000380000200907090E002804DB00F1E02090
:1029D00080F80014704700F00F0000F1E02080F84C
:1029E000141D704702E008C8121F08C1002AFAD15E
:1029F00070477047002001E001C1121F002AFBD17F
:102A0000704700002DE9FF5F82B00021DDE904304E
:102A1000020DDDF840B0034318D044F61050A2F286
:102A2000FF3242431514119801281FD0A5EB0B006B
:102A3000401C5FEA000A4FF000064E4FDFF8389165
:102A4000B046504615D5CAF1000413E01198012490
:102A50004AA3012801D16FEA0B010298119AC0E93B
:102A60000031C0E9024206B0BDE8F09FCBF10000A2
:102A7000DFE704460021404A491842EB0450CDE903
:102A8000001012E0E00707D032463B464046494678
:102A9000FDF77EFB8046894632463B461046194686
:102AA000FDF776FB06460F466410002CEAD1DDE9FF
:102AB0000401DDE90023BAF1000F06DAFDF768FB37
:102AC00042464B46FDF764FB05E0FDF72BFD424611
:102AD0004B46FDF727FD04460E460022284BFDF726
:102AE000A9FD03D84FF0FF30014607E00022254B37
:102AF00020463146FDF76FFCFDF783FD102409E009
:102B0000002C0ADB0A220023FDF7D7FB039B30329F
:102B10001A55641E50EA0102F2D1641C039AC4F1F2
:102B200011031444119A012A03D0012208430DD144
:102B30000AE0084304D000204FF0110B119072E717
:102B4000A3EB0B056D1E0DE05B4504DD4FF00002AD
:102B500005F1010504E003DA4FF00002A5F10105DB
:102B6000002AECD002981199C0E90231C0E9004571
:102B700079E70000000014400000F03F3000000042
:102B80000000F0430000E03F2DE9FF4F95B09A466A
:102B9000884606460025EEE1252877D10024274601
:102BA000F94A0121039400E0044316F8013F203B59
:102BB00001FA03F01042F7D130782A2811D06FF0D3
:102BC0002F033078A0F13002092A16D8039A44F076
:102BD000020402EB820203EB42021044761C0390D3
:102BE000EFE758F8042B0392002A03DA504244F42A
:102BF0000054039044F00204761C30782E2816D13D
:102C000016F8010F44F004042A280DD06FF02F02AB
:102C10003078A0F13003092B09D807EB870302EBCA
:102C20004303C718761CF3E758F8047B761C30780A
:102C30006C280FD006DC4C2817D068280DD06A28E5
:102C400014D104E0742810D07A280FD10DE044F498
:102C500000140AE044F4801401E044F44014727853
:102C6000824202D104F58014761C761C30786628E6
:102C70000BD013DC582877D009DC002875D0452804
:102C8000F6D04628F4D047281AD193E118E06328FB
:102C900035D0642879D0652812D18BE1702873D0A3
:102CA00008DC6728F1D069286FD06E280DD06F2816
:102CB00006D1ACE073282CD0752874D0782853D076
:102CC0005246179990476D1C54E1C4F302500228F4
:102CD00009D003280DD0D8F8001004280DD00D60BD
:102CE00008F1040846E1D8F80010EA17C1E90052DB
:102CF000F6E7D8F800100D80F2E70D70F0E718F84D
:102D0000041B8DF8001000208DF80100EB46012017
:102D100003E058F804BB4FF0FF3061074FF00001AB
:102D200002D40DE009F101018946B9420FDA81456B
:102D3000F8DB1BF809100029F4D108E009F10101C2
:102D400089468142FADB1BF809100029F6D1039865
:102D50005346A0EB090721463846179A00F080FA3F
:102D6000284400EB090507E044E008E10DE01BF80A
:102D7000010B524617999047B9F10109F7D2534612
:102D800021463846179AF2E039E00A21C4F302528C
:102D90004FF0000B0091022A06D058F8040BC1171F
:102DA000032A09D00AE023E008F1070020F0070217
:102DB000F2E80201904605E000B2C117042A01D1F1
:102DC00040B2C117002906DA0A460021404261EBF1
:102DD00002012D2202E0220504D52B228DF80420C9
:102DE000012203E0E20701D02022F7E7914657E0F5
:102DF0000A2100E010214FF0000B00910BE01021A0
:102E00004FF0000B44F004040827009103E0082071
:102E10004FF0000B0090C4F30252022A05D058F87C
:102E2000040B0021032A08D008E008F1070020F075
:102E30000702F2E80201904603E080B2042A00D1C2
:102E4000C0B24FF0000922072AD53278702A07D085
:102E5000DDF800C08CF0100C5CEA0B0C05D00EE025
:102E600040228DF80420012208E050EA010306D038
:102E700030238DF804308DF8052002229146009B06
:102E800083F0080353EA0B030AD150EA010201D18F
:102E9000620705D530228DF804204FF001097F1E0E
:102EA0003278582A04D039A20C920CAA02920BE074
:102EB0003BA2F9E75B46009AFDF7FFF90C9B9B5C90
:102EC000029A521E0292137050EA0102F2D1029845
:102ED00004A9081A00F1200B600702D524F48034FD
:102EE00000E001275F4502DDA7EB0B0000E00020BA
:102EF00000EB0B01009003984944401A0390E00353
:102F000006D453462146179A039800F0A9F90544C0
:102F1000002706E001A85246C05D179990476D1C36
:102F20007F1C4F45F6DBE0030CD553462146179A2C
:102F3000039800F095F9054404E0302052461799B3
:102F400090476D1C0099481E00900029F5DC08E0B0
:102F50000298029952460078491C029117999047AD
:102F60006D1CBBF10001ABF1010BF1DC5BE100F08A
:102F700065F90544761C307800287FF40DAE19B051
:102F80002846BDE8F08F00000928010030313233B7
:102F90003435363738396162636465660000000095
:102FA000303132333435363738394142434445467F
:102FB00000000000600700D4062708F1070020F099
:102FC0000700F0E80223804603F0004C5FEA0C00A3
:102FD00001D097A009E0200501D596A005E0E00703
:102FE00001D095A001E0AFF24C001390307823F0AF
:102FF000004365280CD006DC452809D046281DD0A2
:1030000047287FD13BE0662818D067287AD136E080
:103010000021112F01DB112000E0781CCDE9000117
:1030200004A90CA8FFF7EEFCDDE90D010C9A4FF0A6
:10303000000B07F10109109200914EE04FF00040A3
:103040000097CDE9011004A90CA8FFF7DBFCDDE92E
:103050000D020C9B0F994FF0000B914610930092BC
:1030600011B9791C00EB0109B7EB090003D4C0F1D9
:10307000FF3B07F10109A9EB0700019042E0012F96
:1030800000DA01270021112F01DD112000E0384670
:10309000CDE9000104A90CA8FFF7B4FCDDE90D019E
:1030A0000C9A00914FF0000BB946109221070FD4F3
:1030B000009A4A4503DA914601E0A9F10109B9F104
:1030C000010F05DD109AA9F10101515C3029F4D0FE
:1030D000B84202DA10F1040F03DA0121CDE9011040
:1030E00010E0002803DC8344A9EB000102E0411C4E
:1030F000494500DD8946A0EB0B00401C01904FF0D4
:1031000000400290200705D40198484502DB4FF0AB
:10311000FF30019000208DF84B0002980DF14B0715
:10312000B0F1004F25D002200C902B200D9002987A
:1031300000280CDA404202902D200D9007E00A2171
:103140000298FDF7A4F83031029007F8011D0C99A0
:10315000481E0C900029F2DC02980028EFD1791E5D
:103160000D980870307800F0200040F0450007F816
:10317000020D11A8C01BC01D02901398007800B169
:10318000012000EB0901019801EBE0710298014474
:103190000398401A401E0390E00306D4534621468C
:1031A000179A039800F05CF805441398007818B15A
:1031B0005246179990476D1CE00323D5534621468C
:1031C000179A039800F04CF805441BE0BBF1000F80
:1031D00007DB0098584504DD1098179910F80B008C
:1031E00001E0179930205246904701980BF1010BEE
:1031F000401E05F10105019004D12E205246179979
:1032000090476D1CB9F10001A9F10109DEDC05E070
:1032100017F8010B5246179990476D1C0299481EEA
:1032200002900029F4DC53462146179A03989EE643
:103230002D0000002B000000200000002DE9F041CF
:10324000044600251E461746880404D405E0394686
:103250002020B0476D1C641EF9D52846BDE8F081DA
:103260002DE9F041044600251E469046C80301D5CD
:10327000302700E02027880404D505E04146384681
:10328000B0476D1C641EF9D52846BDE8F0810000EA
:1032900013B54FF47A73012269460248FEF7E6FC43
:1032A00000981CBD20030020FDF7D0FCFFF71CF8A0
:1032B000FEF756FDFEF73EFDFEF7C6FDFEF7F8FDF4
:1032C000FEF712FEFEF79CFD012205490548FEF7B8
:1032D000A1FC0548FEF758F9FFF7F2F9FCE70000FA
:1032E0000C00002068030020D802002000C18140AB
:1032F00001C0804101C0804100C1814001C08041C6
:1033000000C1814000C1814001C0804101C08041B5
:1033100000C1814000C1814001C0804100C18140A5
:1033200001C0804101C0804100C1814001C0804195
:1033300000C1814000C1814001C0804100C1814085
:1033400001C0804101C0804100C1814000C1814075
:1033500001C0804101C0804100C1814001C0804165
:1033600000C1814000C1814001C0804101C0804155
:1033700000C1814000C1814001C0804100C1814045
:1033800001C0804101C0804100C1814000C1814035
:1033900001C0804101C0804100C1814001C0804125
:1033A00000C1814000C1814001C0804100C1814015
:1033B00001C0804101C0804100C1814001C0804105
:1033C00000C1814000C1814001C0804101C08041F5
:1033D00000C1814000C1814001C0804100C18140E5
:1033E00001C0804101C0804100C1814000C0C101D5
:1033F000C30302C2C60607C705C5C404CC0C0DCD65
:103400000FCFCE0E0ACACB0BC90908C8D81819D9D4
:103410001BDBDA1A1EDEDF1FDD1D1CDC14D4D51504
:10342000D71716D6D21213D311D1D010F03031F1F4
:1034300033F3F23236F6F737F53534F43CFCFD3D24
:10344000FF3F3EFEFA3A3BFB39F9F83828E8E92914
:10345000EB2B2AEAEE2E2FEF2DEDEC2CE42425E5C4
:1034600027E7E62622E2E323E12120E0A06061A134
:1034700063A3A26266A6A767A56564A46CACAD6DE4
:10348000AF6F6EAEAA6A6BAB69A9A86878B8B97954
:10349000BB7B7ABABE7E7FBF7DBDBC7CB47475B584
:1034A00077B7B67672B2B373B17170B05090915174
:1034B0009353529296565797559594549C5C5D9DA4
:1034C0005F9F9E5E5A9A9B5B995958988848498994
:1034D0004B8B8A4A4E8E8F4F8D4D4C8C4484854544
:1034E000874746868242438341818040010202032E
:1034F0000405060708090A0B0C0D0E0F101000003A
:103500000000000000000102030406070809000093
:10351000000001020304000038350008000000200C
:103520003C000000E4290008743500083C0000203D
:1035300034080000F429000800000000000000002A
:10354000000000000000000000000000000000007B
:10355000000000000000000000000000000000006B
:103560000100000010000000000000000024F40032
:043570000000000057
:04000005080000ED02
:00000001FF
